{
    "contractName": "Reader",
    "abi": [
        {
            "inputs": [
                {
                    "internalType": "address",
                    "name": "_add",
                    "type": "address"
                }
            ],
            "name": "getDataFrom",
            "outputs": [
                {
                    "components": [
                        {
                            "internalType": "int128",
                            "name": "amount",
                            "type": "int128"
                        },
                        {
                            "internalType": "uint256",
                            "name": "id",
                            "type": "uint256"
                        },
                        {
                            "internalType": "bool",
                            "name": "voted",
                            "type": "bool"
                        }
                    ],
                    "internalType": "struct Reader.InfoveNFT[]",
                    "name": "",
                    "type": "tuple[]"
                }
            ],
            "stateMutability": "view",
            "type": "function"
        }
    ],
    "bytecode": "608060405234801561001057600080fd5b506103f3806100206000396000f3fe608060405234801561001057600080fd5b506004361061002b5760003560e01c8063ffdbba9a14610030575b600080fd5b61004361003e3660046101a6565b610059565b60405161005091906101d6565b60405180910390f35b604051632118854760e21b81526001600160a01b0382166004820152606090600090738313f3551c4d3984ffbadfb42f780d0c8763ce9490638462151c90602401600060405180830381865afa1580156100b7573d6000803e3d6000fd5b505050506040513d6000823e601f3d908101601f191682016040526100df919081019061027b565b905060005b815181101561019f576000738313f3551c4d3984ffbadfb42f780d0c8763ce946001600160a01b031663b45a3c0e84848151811061012457610124610321565b60200260200101516040518263ffffffff1660e01b815260040161014a91815260200190565b6040805180830381865afa158015610166573d6000803e3d6000fd5b505050506040513d601f19601f8201168201806040525081019061018a9190610337565b5081905061019781610396565b9150506100e4565b5050919050565b6000602082840312156101b857600080fd5b81356001600160a01b03811681146101cf57600080fd5b9392505050565b602080825282518282018190526000919060409081850190868401855b828110156102275781518051600f0b85528681015187860152850151151585850152606090930192908501906001016101f3565b5091979650505050505050565b634e487b7160e01b600052604160045260246000fd5b604051601f8201601f1916810167ffffffffffffffff8111828210171561027357610273610234565b604052919050565b6000602080838503121561028e57600080fd5b825167ffffffffffffffff808211156102a657600080fd5b818501915085601f8301126102ba57600080fd5b8151818111156102cc576102cc610234565b8060051b91506102dd84830161024a565b81815291830184019184810190888411156102f757600080fd5b938501935b83851015610315578451825293850193908501906102fc565b98975050505050505050565b634e487b7160e01b600052603260045260246000fd5b60006040828403121561034957600080fd5b6040516040810181811067ffffffffffffffff8211171561036c5761036c610234565b6040528251600f81900b811461038157600080fd5b81526020928301519281019290925250919050565b6000600182016103b657634e487b7160e01b600052601160045260246000fd5b506001019056fea2646970667358221220aea2a464ef94bcb4015d50446e95aff9c7fe2c81ade04e66c8ab29b97b6e04ea64736f6c63430008130033",
    "sourcePath": "/Users/martinsuarez/Documents/DebitaV2/DebitaV2-Contracts/contracts/extras/readerContract.sol",
    "compiler": {
        "name": "solc",
        "version": "0.8.19+commit.7dd6d404"
    },
    "functionHashes": {
        "getDataFrom(address)": "ffdbba9a"
    },
    "gasEstimates": {
        "creation": {
            "codeDepositCost": "202200",
            "executionCost": "245",
            "totalCost": "202445"
        },
        "external": {
            "getDataFrom(address)": "infinite"
        }
    }
}